:020000040000FA
:100000002828A301A200FF30A207031CA307031C9A
:1000100023280330A100DF300F200328A101E83E90
:10002000A000A109FC30031C1828A00703181528FC
:10003000A0076400A10F152820181E28A01C222844
:1000400000002228080083130313831264000800B1
:100050008316860187018312061086100611861109
:100060000612861606130710871407158711071244
:10007000871207170330A300E8308A010220061414
:100080008614061586150616861606170714871495
:10009000071587150716871607170330A300E830E2
:1000A0008A01022006108610061186110612861695
:1000B00006130714871407158715071287120717E9
:1000C0000330A300E8308A010220061486140615C6
:1000D0008615061686160617071487140715871542
:1000E0000716871607170330A300E8308A0102209D
:1000F00006148614061186110612861206130714BA
:100100008714071187110712871207130330A30002
:10011000E8308A0102200614861406158615061694
:1001200086160617071487140715871507168716EE
:1001300007170330A300E8308A0102200614861452
:10014000061586110612861206130710871007116E
:1001500087110712871607130330A300E8308A01BE
:10016000022006148614061586150616861606172E
:100170000714871407158715071687160717033006
:10018000A300E8308A0102200614861006118611A9
:10019000061686120613071087100711871107121B
:1001A000871607130330A300E8308A0102200614E3
:1001B0008614061586150616861606170714871464
:1001C000071587150716871607170330A300E830B1
:0E01D0008A0102208A012C2863008A01EC2893
:00000001FF
